:100000000C94E0000C9408010C9408010C94080175
:100010000C9408010C9408010C9408010C9408013C
:100020000C9408010C9408010C9408010C9408012C
:100030000C9408010C9408010C9408010C9408011C
:100040000C94D91D0C9408010C94491E0C94231E89
:100050000C9408010C9408010C9408010C940801FC
:100060000C9408010C94080100407A10F35A00A087
:10007000724E18090010A5D4E80000E87648170071
:1000800000E40B54020000CA9A3B000000E1F505B1
:10009000000080969800000040420F000000A086FB
:1000A00001000000102700000000E803000000002D
:1000B0006400000000000A000000000001000000D1
:1000C00000002C76D888DC674F0823DFC1DFAE59EB
:1000D000E1B1B796E5E3E453C63AE651997696E87E
:1000E000E6C28426EB898C9B62ED407C6FFCEFBC02
:1000F0009C9F40F2BAA56FA5F490055A2AF75C932D
:100100006B6CF9676DC11BFCE0E40D47FEF520E662
:10011000B500D0ED902E0300943577050080841E45
:10012000080000204E0A000000C80C333333330FA0
:10013000986E12831141EF8D2114893BE65516CF3D
:10014000FEE6DB18D1844B381BF77C1D901DA4BB49
:10015000E424203284725E228100C9F124ECA1E5FE
:100160003D270000000023002600290000000000B9
:10017000240027002A0000000000250028002B0092
:10018000040404040404040402020202020203033D
:100190000303030301020408102040800102040845
:1001A00010200102040810200000000800020100D5
:1001B000000304070000000000000000FB1FCC2625
:1001C00011241FBECFEFD8E0DEBFCDBF14E0A0E00A
:1001D000B1E0ECE2FEE502C005900D92A635B10754
:1001E000D9F726E0A6E5B4E001C01D92A636B20715
:1001F000E1F710E0CFEDD0E004C02197FE010E94AE
:10020000FD2CCE3DD107C9F70E9440210C94092F47
:100210000C9400008CBD9DBD089520E3FC0120835B
:100220003296862F82958F706F706A3030F4605DE1
:100230006293682F8111F5CF0895695CF9CFFC01B5
:10024000818D928D0895089590E0FC01E855FE4F50
:100250002491FC01EC56FE4F3491FC01E058FE4F16
:10026000E491EE23C9F0222339F0233001F1A8F400
:10027000213019F1223029F1F0E0EE0FFF1FEA588A
:10028000FE4FA591B4918FB7F894EC91611126C0FF
:1002900030953E233C938FBF08952730A9F0283036
:1002A000C9F0243049F7809180008F7D03C0809190
:1002B00080008F7780938000DFCF84B58F7784BDF7
:1002C000DBCF84B58F7DFBCF8091B0008F7780939B
:1002D000B000D2CF8091B0008F7DF9CF3E2BDACF26
:1002E000CF93DF9390E0FC01EC56FE4F24918058B1
:1002F0009E4FFC0184918823D1F090E0880F991FD4
:10030000FC01E459FE4FA591B491FC01EA58FE4F5F
:10031000C591D49161110EC09FB7F8948C91E22FD2
:10032000E0958E238C932881E223E8839FBFDF91A1
:10033000CF9108958FB7F894EC91E22BEC938FBF97
:10034000F6CF8E50806480937C0080917A00806428
:1003500080937A0080917A0086FDFCCF80917800AE
:100360009091790008953FB7F8948091E5049091B9
:10037000E604A091E704B091E80426B5A89B05C067
:100380002F3F19F00196A11DB11D3FBFBA2FA92F14
:10039000982F8827BC01CD01620F711D811D911D11
:1003A00042E0660F771F881F991F4A95D1F708957D
:1003B0008F929F92AF92BF92CF92DF92EF92FF9275
:1003C0004B015C010E94B3016B017C010E94B301EF
:1003D0006C197D098E099F09683E7340810591055E
:1003E000A8F321E0821A9108A108B10888EEC80E8E
:1003F00083E0D81EE11CF11C81149104A104B10416
:1004000029F7FF90EF90DF90CF90BF90AF909F9033
:100410008F9008952FB7F8946091E1047091E204F1
:100420008091E3049091E4042FBF0895DC01ED91E5
:10043000FC910190F081E02D0994DB0114964D911F
:100440005C9115976D917C91DC01ED91FC9102809E
:10045000F381E02D0994AF92BF92CF92DF92EF9299
:10046000FF920F931F93CF93DF936C017B018B015E
:10047000040F151FEB015E01AE18BF08C017D107AE
:1004800059F06991D601ED91FC910190F081E02D38
:10049000C6010995892B79F7C501DF91CF911F918D
:1004A0000F91FF90EF90DF90CF90BF90AF900895A5
:1004B000FC01538D448D252F30E0842F90E0821B6A
:1004C000930B541710F0CF96089501970895FC01EF
:1004D000918D828D981761F0A28DAE0FBF2FB11D47
:1004E0005D968C91928D9F5F9F73928F90E008959F
:1004F0008FEF9FEF0895FC01918D828D981731F059
:10050000828DE80FF11D858D90E008958FEF9FEFAC
:100510000895FC01918D228D892F90E0805C9F4F82
:10052000821B91098F73992708958EE095E00E94B0
:10053000890221E0892B09F420E0822F089580E0D0
:1005400090E0892B29F00E94950281110C94000003
:100550000895FC01A48DA80FB92FB11DA35ABF4F58
:100560002C91848D90E001968F739927848FA689B2
:10057000B7892C93A089B1898C91837080648C9306
:10058000938D848D981306C00288F389E02D8081B5
:100590008F7D80830895EF92FF920F931F93CF93E7
:1005A000DF93EC0181E0888F9B8D8C8D98131AC0AE
:1005B000E889F989808185FF15C09FB7F894EE8995
:1005C000FF896083E889F9898081837080648083F2
:1005D0009FBF81E090E0DF91CF911F910F91FF903D
:1005E000EF900895F62E0B8D10E00F5F1F4F0F73E5
:1005F0001127E02E8C8D8E110CC00FB607FCFACFA0
:10060000E889F989808185FFF5CFCE010E94A90292
:10061000F1CFEB8DEC0FFD2FF11DE35AFF4FF08270
:100620009FB7F8940B8FEA89FB8980818062CFCFD6
:10063000CF93DF93EC01888D8823B9F0AA89BB8919
:10064000E889F9898C9185FD03C0808186FD0DC004
:100650000FB607FCF7CF8C9185FFF2CF808185FF25
:10066000EDCFCE010E94A902E9CFDF91CF9108958D
:10067000FC0120812EBD9B012150310941F05181A7
:100680000DB407FEFDCF4EB55EBD4193F5CF615071
:100690007109860F971F0DB407FEFDCF2EB5FC0123
:1006A00020830895E0915704F0915804808190913F
:1006B0005604892B80830895E0915704F0915804E3
:1006C00090818091560480958923808308958EBD02
:1006D00000000DB407FEFDCF8EB50895AF92BF9216
:1006E000CF92DF92EF92FF920F931F93CF93DF93FE
:1006F000CDB7DEB728970FB6F894DEBF0FBECDBFDB
:100700008C017B016A0180910D058333E1F458016E
:10071000A40EB51EA016B10609F46FC00E945C03BA
:1007200080EF0E946703812F0E946703802F0E9441
:1007300067030F5F1F4FF70181917F010E946703DD
:100740000E945203E7CF5B01A40EB51E8433C1F4AF
:100750000E945C0319830A838D2D80688B83CC8271
:1007600064E070E0CE0101960E943803AE14BF042D
:1007700009F441C0F70181917F010E946703F6CF20
:100780000E945C030F3F110509F028F419820A83C7
:1007900084E08B830CC017FD17C019820A8333E0F5
:1007A000169507953A95E1F7007E0C600B8386E07D
:1007B000C816D104A0F5F701DE011496EA15FB0571
:1007C00099F081918D93FACFC80126E0969587958F
:1007D0002A95E1F7807E19830A830115104C10F4E5
:1007E0008461D7CF8C61D5CFB6016D5F7F4FCE01CD
:1007F00001960E9438030E945203C60128960FB644
:10080000F894DEBF0FBECDBFDF91CF911F910F9146
:10081000FF90EF90DF90CF90BF90AF90089563E08E
:1008200070E0CE0101960E943803F70181917F01AB
:100830000E946703AE14BF04C1F7DDCFCF93DF93EF
:100840001F92CDB7DEB7898341E050E0BE016F5FF4
:100850007F4F90E080E00E946E030F90DF91CF9178
:10086000089590E020910D05233339F40C96982FCC
:10087000990F990F990F80E008954896F8CFDA0103
:10088000E0915A04F0E0FE2FEE27E60FF71F90E00C
:10089000982F8827A901BD018E0F9F1F0C946E030E
:1008A000CF93DF9300D0CDB7DEB779836A8322E0A0
:1008B00030E0AE014F5F5F4F60E170E00E943F04A7
:1008C0000F900F90DF91CF910895CF93DF9300D0D9
:1008D000CDB7DEB779836A8322E030E0AE014F5FA7
:1008E0005F4F64E070E00E943F040F900F90DF9133
:1008F000CF910895CF93DF931F92CDB7DEB72091AC
:100900005A0430E0322F2227260F371F90E0982F0D
:100910008827498341E050E0BE016F5F7F4F820F1F
:10092000931F0E946E030F90DF91CF910895CF9394
:10093000DF931F92CDB7DEB76983DC01ED91FC91A7
:100940000280F381E02D41E050E0BE016F5F7F4FF8
:1009500009950F90DF91CF910895CF93DF931F9268
:10096000CDB7DEB76983DC01ED91FC910280F381A4
:10097000E02D41E050E0BE016F5F7F4F09950F9081
:10098000DF91CF910895FC019485FB018485981334
:1009900003C081E0943008F080E00895CF93DF93A6
:1009A0001F92CDB7DEB76983DC01ED91FC91028027
:1009B000F381E02D41E050E0BE016F5F7F4F09956C
:1009C0000F90DF91CF9108950895FF920F931F9399
:1009D000CF93DF93EB01FC01178A168A2A8121113C
:1009E00009C02B81211106C02C81211103C02D814A
:1009F000222301F141155105E9F08A01FC01F08C37
:100A000080E591E00E940A01AE014E5F5F4F24E055
:100A100030E06CE070E08F2D0E943F04B8018F2D14
:100A20000E94500481E090E0DF91CF911F910F91DF
:100A3000FF90089580E0F7CFFC01848595850895A7
:100A4000FC018489958908952FE831E0FC01318308
:100A50002083FB014089518962897389FC014283AB
:100A60005383648375830895DC01ED91FC91048CBC
:100A7000F58DE02D0994FC01768765870895DC01EA
:100A8000ED91FC9102A0F3A1E02D099591E0892759
:100A90000895862F089581E08627089521E0FC01BE
:100AA0008485843008F020E0822F08950895089509
:100AB00090E080E00895AF92BF92CF92DF92EF92E4
:100AC000FF920F931F93CF93DF9300D000D0CDB749
:100AD000DEB78C016B017A0180910D058333E9F457
:100AE0005B016801C40ED51EC016D106A9F10E9493
:100AF0005C038FE00E946703812F0E946703802FB1
:100B00000E9467030F5F1F4F80E00E946703F5019B
:100B100081935F010E945203E7CF843369F50E94FD
:100B20005C0319830A838F2D8F778B83EC8264E0BB
:100B300070E0CE0101960E943803A70170E060E0EA
:100B4000C6010E94FB2EE114F10421F0B701C60199
:100B50000E9438030E945203C7010F900F900F901C
:100B60000F90DF91CF911F910F91FF90EF90DF9049
:100B7000CF90BF90AF9008950E945C030F3F110586
:100B800009F030F419820A831B8263E070E0D1CF50
:100B900017FD0BC019820A8333E0169507953A9525
:100BA000E1F7007E08600B83F0CFC80126E0969540
:100BB00087952A95E1F7807E19830A830115104CE9
:100BC00018F480618B83E1CF8861FCCF1F93CF93B2
:100BD000DF931F92CDB7DEB7182F80E591E00E941A
:100BE0000A01812F0E94310427E0129FF001112495
:100BF000E751FB4F22813381377041E050E0BE0165
:100C00006F5F7F4F820F931F0E945B0589810F905A
:100C1000DF91CF911F910895FC01808D843040F4C5
:100C2000218D328D232B21F00E94E60590E008955E
:100C30008FEF9FEF0895CF93DF93FC01248524303D
:100C400028F08FEF9FEFDF91CF910895EC01019095
:100C5000F081E02D0084F185E02D0995892B89F341
:100C60008C850E94E60590E0EECFCF93DF931F9234
:100C7000CDB7DEB741E050E0BE016F5F7F4F0E940D
:100C80005B0589810F90DF91CF91089590E080E01E
:100C90000C943506CF93DF93C4E1D0E00E94460662
:100CA000882361F061E070E080E090E00E94D8016C
:100CB0002197A1F780E0DF91CF91089581E0FBCFEC
:100CC000DF92EF92FF920F931F93CF93DF9300D0A9
:100CD000CDB7DEB760E372E080E090E00E94D8011B
:100CE000DFB6F8940AE811E03EE9E32E31E0F32E96
:100CF00080915904811125C0F8018491F7019491E4
:100D0000E82FF0E0EE0FFF1FE459FE4FA591B491DC
:100D10008C91982321F461E08AE00E94240161E033
:100D20008AE00E9470018CB580618CBD8CB58064B6
:100D30008CBD61E08DE00E94700161E08BE00E945B
:100D40007001809159048F5F80935904DFBEF801D0
:100D50000491E02FF0E0EE0FFF1FEA58FE4F85915F
:100D600094919093580480935704F701E490E09293
:100D7000560461E08AE00E9470010E94520380E5FF
:100D800091E00E940A0184E380930D0580E80E94AF
:100D90001E040E944A06882309F441C088E00E948C
:100DA0001E040E9446068830D1F580E10E941E0490
:100DB0000E944606803199F580E00E941E040E9440
:100DC0004606182F81112BC08FE190E00E94350656
:100DD000833029F580E480935A0442E06EE170E0AC
:100DE000812F0E947A0442E06FE170E0812F0E941F
:100DF0007A041F5F143089F740E06EE170E0812FC4
:100E00000E947A0440E06FE170E0812F0E947A0432
:100E10001F5F183089F781E08093C30464C087E3C3
:100E200080930D0580E80E941E040E944A068823D4
:100E3000F9F088E00E941E040E9446068830C1F442
:100E400080E10E941E040E944606182F803181F422
:100E500080E00E941E040E944606811109C089E3B9
:100E600090E00E943506843019F410935A04D3CFD1
:100E700083E380930D0580E80E941E040E944A06C9
:100E8000882371F180E10E941E040E944606803191
:100E900039F582E10E941E040E944606823101F566
:100EA00080E00E941E040E944606811119C084E061
:100EB00080935A0415E51A8341E050E0BE016E5F4D
:100EC0007F4F8BE190E00E946E03198341E050E078
:100ED000BE016F5F7F4F8AE190E00E946E039BCF5F
:100EE00010920D0580E00F900F90DF91CF911F9130
:100EF0000F91FF90EF90DF90089520915A0430E019
:100F0000322F2227620F731F90E0982F8827860FB9
:100F1000971F0C943506CF93C82F462F61E070E0E1
:100F20000E947A0461E070E08C2F0E947D0781119D
:100F3000F9CFCF910895CF93C82F80E591E00E941B
:100F40000A0168E070E08C2FCF910C948B07CF934F
:100F5000C82F80E591E00E940A0160E170E08C2FCB
:100F6000CF910C948B07CF93DF93EC01888D843065
:100F700020F40E94A70784E0888FDF91CF91089525
:100F800063E070E00C947D07CF93C82F80E591E07B
:100F90000E940A018C2FCF910C94C007EF92FF9210
:100FA0000F931F93CF937C0105E015E0C0E0F8019B
:100FB000219131918F01F70184819581281739079B
:100FC00029F0CF5FC43099F780E006C08C2F0E94D3
:100FD000C4078431B1F781E0CF911F910F91FF9049
:100FE000EF900895CF93DF93EC018C858430D0F49B
:100FF0000E94C407843189F0882379F0883169F030
:1010000021E08C3159F4E881F9810084F185E02DEB
:10101000CE01099521E0892B09F420E0822FDF9190
:10102000CF91089580E0FBCFCF92DF92EF92FF92B5
:10103000CF93DF93EC018C85843068F40E949B078A
:101040000E940A026B017C018C850E94C4078111F9
:1010500009C084E08C87DF91CF91FF90EF90DF9003
:10106000CF90089561E070E080E090E00E94D801A8
:101070000E940A02AB01BC014C195D096E097F098F
:101080008D859E85B0E0A0E0481759076A077B0769
:10109000D8F28C850E94A707DCCFCF93FC01C08DCE
:1010A00080E591E00E940A0160E270E08C2F0E94CE
:1010B0008B0762E070E08C2F0E947D0784FD16C0D4
:1010C00062E070E08C2F0E947D0783FF0AC048E138
:1010D00062E070E08C2F0E947A0480E090E0CF9173
:1010E000089580E591E00E940A01E3CF40E162E0CB
:1010F00070E08C2F0E947A0481E0F0CFDA01E09159
:101100005A04F0E0FE2FEE27E60FF71F90E0982F2D
:101110008827A901BD018E0F9F1F0C945B058F923C
:101120009F92AF92BF92CF92DF92EF92FF921F9366
:10113000CF93DF93CDB7DEB72C970FB6F894DEBF11
:101140000FBECDBF20910D0514E0222329F16B01C4
:101150007C0180E591E00E940A015E0127E0A20E79
:10116000B11C450110E0812F0E94C007F40181935A
:101170004F01882349F11F5F1430A9F710E0F501F2
:1011800081915F018D31D9F08831C9F08A51823067
:10119000B0F01F5F143099F7812F2C960FB6F8949A
:1011A000DEBF0FBECDBFDF91CF911F91FF90EF90BB
:1011B000DF90CF90BF90AF909F908F90089560E1A7
:1011C00070E0812F0E948B07A12EB12CF501EE0F4C
:1011D000FF1FEB5FFA4F1182108283EE93E00197BD
:1011E000F1F742E870E060E0812F0E947A044FEF4F
:1011F00062E070E0812F0E947A04B601C114D1042C
:1012000091F4809106019091070101968115F0EC0F
:101210009F0708F45CC090930701809306016091DA
:10122000060170910701812F0E94650486E0E2E1CA
:10123000F1E0DE01119601900D928A95E1F7F70138
:1012400083818F778C8384818D8385818E83A701B1
:101250004E5F5F4F24E030E06CE070E0812F0E9431
:101260003F04B601812F0E94500426E030E0AE0119
:101270004F5F5F4F66E070E0812F0E943F0461E0A6
:1012800070E0812F0E948B0727E02A9DC0012B9DD3
:10129000900D11249C0127513B4F7901F9011182D6
:1012A000108222E030E0AE01455F5F4F68E270E0FF
:1012B000812F0E947E088B859C85982789279827F7
:1012C000F7019383828316821582148265CF80E0B2
:1012D00090ECA1CFCF92DF92EF92FF920F931F93EA
:1012E000CF93DF9300D000D000D0CDB7DEB78C0114
:1012F0006B017A01FC01808D843010F40E94A707F5
:101300008FE891E09A838983F60182819381A48199
:10131000B5818B839C83AD83BE83B701CE010196DB
:101320000E948F08F801808F8430A0F4F586E4864F
:10133000128E118E81E026960FB6F894DEBF0FBE96
:10134000CDBFDF91CF911F910F91FF90EF90DF9074
:10135000CF90089580E0EFCFAF92BF92CF92DF920F
:10136000EF92FF920F931F93CF93DF9300D000D0A3
:1013700000D0CDB7DEB7082F6B0180E591E00E9469
:101380000A019E012F5F3F4F7901590110E0812F23
:101390000E94C007F50181935F01882341F11F5F1F
:1013A0001430A9F710E0F70181917F018D31D1F060
:1013B0008831C1F08A518230A8F01F5F143099F74C
:1013C000812F26960FB6F894DEBF0FBECDBFDF91FA
:1013D000CF911F910F91FF90EF90DF90CF90BF9032
:1013E000AF90089560E170E0812F0E948B07E12E9D
:1013F000F12CF701EE0FFF1FEB5FFA4F1182108205
:1014000083EE93E00197F1F7402F70E060E0812FC9
:101410000E947A044FEF62E070E0812F0E947A040C
:10142000B601CD2889F480910601909107010196BB
:101430008115F0EC9F0798F19093070180930601C6
:101440006091060170910701812F0E94650461E09F
:1014500070E0812F0E948B0727E02E9DC0012F9DF9
:10146000900D11249C0127513B4F7901F901118204
:10147000108222E030E0AE014B5F5F4F68E270E027
:10148000812F0E947E088D819E8198278927982729
:10149000F7019383828316821582148291CF80E0B4
:1014A00090ECCACFCF92DF92EF92FF921F93CF932F
:1014B000DF93EC017B016A018C85843048F40E9443
:1014C000C407882319F08C850E949B0784E08C87D1
:1014D000F70182819381A481B5810097A105B105AF
:1014E00051F490E080E0DF91CF911F91FF90EF9059
:1014F000DF90CF9008958F3F9F4FAF4FBF4F89F33D
:1015000080910D05811103C084E08C87EACF70E0E3
:1015100060E081E20E94AC09182F8C87843008F7C4
:1015200080E591E00E940A01A7014E5F5F4F24E031
:1015300030E06CE070E0812F0E943F04B601812F03
:101540000E94500464E070E0812F0E948B070E948B
:101550000A026B017C018C850E94C407873109F166
:101560008C31F9F0882309F4BCCF0E940A02AB0148
:10157000BC014C195D096E097F098D859E85B0E01F
:10158000A0E084179507A607B70738F061E070E080
:1015900080E090E00E94D801DECF8C850E94A707F2
:1015A000B3CF81E090E09FCF0F931F93CF93DF9352
:1015B000EC018B01888D843010F40E94A707809184
:1015C0000D05811107C094E0988FDF91CF911F9195
:1015D0000F910895B80182E00E94AC09888F843091
:1015E00030F41D870C871A8E198E81E0EECF80E0D3
:1015F000ECCF0F931F93CF9320910D05222349F138
:101600008C01FC016481758181E20E94AC09C82FC4
:101610008430F8F480E591E00E940A018C2F0E944A
:10162000C007833131F08C2FCF911F910F910C9413
:101630009B0762E070E08C2F0E948B07F801848189
:101640009581EC2FF0E0EE0FFF1FEB5FFA4F9183D7
:101650008083CF911F910F9108957F928F929F92D7
:10166000AF92BF92CF92DF92EF92FF920F931F93B0
:10167000CF93DF9300D0CDB7DEB7782E8B014A0130
:10168000590122E030E0AE014F5F5F4F64E270E04D
:101690000E947E08E980FA80FE24EF24FE24E00EFA
:1016A000F11E9701377040910D05072D10E043336F
:1016B00009F042C0085F1F4F102F0027110F110FB4
:1016C000110FC901800F911F4733C9F1A9014A0DBC
:1016D0005B1D4130584098F160E078E06B01C21A20
:1016E000D30AA601B4010E946E03A5014C195D093D
:1016F000B4016C0D7D1DC8010E946E03EA0CFB1C39
:10170000F982EA8222E030E0AE014F5F5F4F64E28F
:1017100070E0872D0E943F040F900F90DF91CF91D2
:101720001F910F91FF90EF90DF90CF90BF90AF90FF
:101730009F908F907F900895005F1F4FBDCFA501B0
:10174000B401DACFEF92FF921F93CF93DF9300D0D3
:10175000CDB7DEB7182F22E030E0AE014F5F5F4F0C
:1017600060E270E00E947E08E980FA80FE24EF24A7
:10177000FE2422E030E0AE014F5F5F4F60E270E098
:10178000812F0E947E0889819A819827892798272E
:10179000E816F90689F487E0189FF0011124E75153
:1017A000FB4FF582E482C7010F900F90DF91CF913C
:1017B0001F91FF90EF9008957C01DBCF1F93CF9393
:1017C000DF93182F80E591E00E940A01812F0E948B
:1017D000A20BEC01812F0E94C007873121F08C31D0
:1017E00011F0D0E0C0E0CE01DF91CF911F910895BC
:1017F000CF93DF93EC018C85843060F40E94C407A2
:10180000873111F08C3131F48C850E94DE0B81150B
:10181000984088F3DF91CF910895FC01848584304E
:1018200010F40C94DE0B90E080E00895CF92DF92EC
:10183000EF92FF921F93CF93DF93182F7B01EA0162
:101840004130584010F0C0E0D8E080E591E00E94BF
:101850000A01812F0E94A20B6C01812F0E94C007F8
:10186000873111F08C3121F5CC16DD0670F380E55F
:1018700091E00E940A019E01A70170E060E0812FC3
:101880000E942D0B60E270E0812F0E948B0762E0C6
:1018900070E0812F0E947D0784FD0DC0812F0E9482
:1018A000C0078823B9F080E591E00E940A01EFCFDC
:1018B000D0E0C0E0DCCF40E162E070E0812F0E9428
:1018C0007A04CE01DF91CF911F91FF90EF90DF90CE
:1018D000CF900895D0E0C0E0F4CF0F931F93CF9343
:1018E000DF938C01EA01FC018485843048F40E9476
:1018F000160C892B39F481E090E0F8019383828300
:10190000D0E0C0E0CE01DF91CF911F910F910895FB
:101910009F92AF92BF92CF92DF92EF92FF920F937E
:101920001F93CF93DF938C015B01942EE52EFC0176
:10193000C688D788F08C80E591E00E940A018F2D3F
:101940000E94A20BC92DDE2D8C179D0708F4EC0117
:101950009E01A501B6018F2D0E942D0BF8018689ED
:1019600097898C0F9D1F978B868BCE01DF91CF912E
:101970001F910F91FF90EF90DF90CF90BF90AF90AD
:101980009F900895FF920F931F93CF93DF9300D002
:10199000CDB7DEB7F82E22E030E0AE014F5F5F4FEB
:1019A00066E270E00E947E0809811A8110270127F3
:1019B000102722E030E0AE014F5F5F4F66E270E03B
:1019C0008F2D0E947E0889819A81982789279827E0
:1019D0000817190749F4C8010F900F90DF91CF91B4
:1019E0001F910F91FF9008958C01E3CF1F93CF9328
:1019F000DF93182F87E0189FE0011124C751DB4FB8
:101A000088819981009761F480E591E00E940A0144
:101A1000812F0E94C20C2E81821B91099983888399
:101A2000DF91CF911F910895AF92BF92CF92DF9235
:101A3000EF92FF920F931F93CF93DF93EC017B0103
:101A400080910D05811120C01B821A8288EE93E0DF
:101A5000A0E0B0E08C839D83AE83BF838DE591E0F1
:101A60009983888384E08C8788EE93E09E878D87B6
:101A7000CE01DF91CF911F910F91FF90EF90DF90FA
:101A8000CF90BF90AF90089585E0C82E85E0D82E06
:101A900010E094E0B92EA12CD6012D913D916D015D
:101AA000F701848195812817390791F4812F0E94CD
:101AB000C407082F873111F08C3139F5812F0E942E
:101AC000F60C892B59F50C3119F4812F0E949B07D4
:101AD0001F5F143009F7A11008C0D701ED91FC91E8
:101AE0000084F185E02DC70109951B821A8288EEDA
:101AF00093E0A0E0B0E08C839D83AE83BF838DE54F
:101B000091E099838883BC86AFCF843149F08111FD
:101B1000DFCFF601329711821082DACFB12ED8CF03
:101B2000AA24A394D5CF8F929F92AF92BF92CF92C7
:101B3000DF92EF92FF921F93CF93DF93CDB7DEB783
:101B40002F970FB6F894DEBF0FBECDBF5C014B01DF
:101B50007A0180910D058823A1F1B501CE0101968E
:101B60000E94140D85E0C82E85E0D82E10E0F60105
:101B7000219131916F01F5018481958128173907F1
:101B800051F4812F0E94C407873129F4A701B401C1
:101B9000812F0E94160C1F5F143049F7C7012F9642
:101BA0000FB6F894DEBF0FBECDBFDF91CF911F916E
:101BB000FF90EF90DF90CF90BF90AF909F908F906D
:101BC0000895F12CE12CEACFFC018485843010F4D7
:101BD0000C94F60C90E080E008954F925F927F9213
:101BE0008F929F92AF92BF92CF92DF92EF92FF922D
:101BF0000F931F93CF93DF9300D0CDB7DEB7782E2E
:101C00006B014A01A82EB12C27E0829FC00111244C
:101C1000FC01E751FB4F7F010081118180E591E0DC
:101C20000E940A010815190554F4872D0E94C20C60
:101C3000F70126818C01021B110911830083011514
:101C4000110519F5872D0E94C007843159F08823AA
:101C500049F001E010E08C3111F410E000E0119542
:101C600001951109C8010F900F90DF91CF911F913D
:101C70000F91FF90EF90DF90CF90BF90AF909F902B
:101C80008F907F905F904F900895801691060CF48E
:101C9000840187E08A9DF0018B9DF00D1124E751AE
:101CA000FB4FE280F380C114D10451F12701F7E02A
:101CB0005F22872D0E943104840D951D20910D0512
:101CC000273309F453C09801240D351D21303840C5
:101CD00008F44CC020E038E0490184189508A401BC
:101CE000B6010E945B052601480C591C6801C81802
:101CF000D908872D0E943104A601B2010E945B051C
:101D0000E00EF11E87E08A9DF0018B9DF00D1124FD
:101D1000E751FB4FF382E28220813181201B310B9E
:101D2000318320838681800F912F911D8A3F9105F9
:101D300010F4232BF1F487E08A9DF0018B9DF00DC8
:101D40001124E751FB4F1682F982EA8222E030E04B
:101D5000AE014F5F5F4F68E270E0872D0E943F0445
:101D600060E470E0872D0E948B077CCFA801B6014C
:101D7000C5CF868377CFCF93DF93FC01218D328D42
:101D80002115310529F48FEF9FEFDF91CF91089551
:101D9000EC01808D4217530708F0A9010E94ED0D58
:101DA0001816190684F7298D3A8D281B390B3A8F9E
:101DB000298FEBCF0F931F93CF93DF931F92CDB754
:101DC000DEB7FC01218D328D232B41F48FEF9FEF85
:101DD0000F90DF91CF911F910F9108958C0141E0F9
:101DE00050E0BE016F5F7F4FFC01808D0E94ED0DC2
:101DF000181619065CF7F801818D928D0197928F64
:101E0000818F898190E0E4CFCF93DF931F92CDB78C
:101E1000DEB741E050E0BE016F5F7F4FFC0184857B
:101E20000E94ED0D1816190634F4898190E00F9088
:101E3000DF91CF9108958FEF9FEFF9CFFC0184855B
:101E4000843010F40C94ED0D90E080E008950F9331
:101E50001F93CF93DF9300D0CDB7DEB7FC0124856D
:101E60002430E0F48C0180E591E00E940A0122E038
:101E700030E0AE014F5F5F4F60E170E0F8018485B4
:101E80000E947E0889819A819827892798270F9038
:101E90000F90DF91CF911F910F91089590E080E016
:101EA000F6CF0F931F93CF93DF9300D0CDB7DEB75C
:101EB000FC0124852430E0F48C0180E591E00E944F
:101EC0000A0122E030E0AE014F5F5F4F64E070E056
:101ED000F80184850E947E0889819A819827892744
:101EE00098270F900F90DF91CF911F910F91089538
:101EF00090E080E0F6CFDC018FE891E08D939D9338
:101F000084E0FB0101900D928A95E1F70895EF922C
:101F1000FF920F931F93CF93DF9300D000D0CDB7E4
:101F2000DEB78C017B01FB0184858430A8F08FE84B
:101F300091E0F801918380831282138214821582CA
:101F4000C8010F900F900F900F90DF91CF911F91CC
:101F50000F91FF90EF90089580E591E00E940A01B3
:101F600024E030E0AE014F5F5F4F6CE070E0F701BE
:101F700084850E947E08BE016F5F7F4FC8010E946A
:101F80007B0FDECF0F931F93CF93DF93CDB7DEB7D9
:101F900028970FB6F894DEBF0FBECDBF8C01D801D5
:101FA00059964D915C915A974115510551F0ED911B
:101FB000FC91048CF58DE02D70E060E0C80109957E
:101FC000EECFF801808D0E94F60C892BB1F148E02C
:101FD00050E0BE016F5F7F4FD80158968C910E94F0
:101FE000ED0D18161906F4F4D801509684E0FE01A0
:101FF000319601900D928A95E1F78D8190E0982FAE
:1020000088272E81820F911DF801958B848B8F81FB
:10201000282F30E0322F22278885820F932F911DA1
:10202000928F818F28960FB6F894DEBF0FBECDBF7A
:10203000DF91CF911F910F91089590E080E0F2CF52
:102040004F925F926F927F928F929F92AF92BF92C8
:10205000CF92DF92EF92FF920F931F93CF93DF9374
:10206000CDB7DEB763970FB6F894DEBF0FBECDBF16
:102070007C016B013A01FB0120E090E080E06AE026
:102080003191332309F461C040ED430F4A3008F029
:102090004DC0689FA001699F500D1124CA01C097CF
:1020A000830F911D37FD9A958F3F910549F340F3BA
:1020B000F701428153816481758180913706909147
:1020C0003806A0913906B0913A06481759076A07B1
:1020D0007B0709F40DC28701085F1F4F0E940A02A7
:1020E0006F7077277C5FC8010E94D40A813009F0A5
:1020F00004C28FE891E09A838983F70182819381FA
:10210000A481B5818B839C83AD83BE8345E350E07E
:10211000BE016F5F7F4FC8010E94E504892BA9F5BE
:10212000D12CC12CC8010E94B30717C03E3209F060
:10213000BFCF233009F4BCCFD301A20FB11D12963B
:102140008C932F5F90E080E09BCF233009F0B0CFDD
:10215000F3018583CC24C394D12CC60163960FB6BA
:10216000F894DEBF0FBECDBFDF91CF911F910F91CD
:10217000FF90EF90DF90CF90BF90AF909F908F90A7
:102180007F906F905F904F9008950E940A02F70130
:102190007783668342E050E0B7016A5F7F4FC801F2
:1021A0000E94880C81E090E09A83898342E050E0AD
:1021B000BE016F5F7F4FC8010E94880C80E091E0F4
:1021C0009A83898342E050E0BE016F5F7F4FC80170
:1021D0000E94880C1A82198242E050E0BE016F5FB3
:1021E0007F4FC8010E94880C42E050E0BE016F5F43
:1021F0007F4FC8010E94880C42E050E0BE016F5F33
:102200007F4FC8010E94880C5601F6018081882307
:1022100001F16501F60181912F01882311F08E32C1
:10222000B1F446018A189B081814190474F48D86B9
:1022300041E050E0BE01635F7F4FC8010E94880CFF
:10224000A401B501C8010E94880C5201DECF6201D1
:10225000E1CF1D8641E050E0BE01635F7F4FC801C2
:102260000E94880CC12CDD24D394DA82C98242E01A
:1022700050E0BE016F5F7F4FC8010E94880CDA8278
:10228000C98242E050E0BE016F5F7F4FC8010E94EB
:10229000880CC8010E944D08892B09F441CFF3E056
:1022A000AF2EB12C230122E0420E511CD4C0F70105
:1022B0004281538164817581808D918DA28DB38D12
:1022C000481759076A077B0709F008C1848D958D67
:1022D000C59709F003C181A192A15DEFC52EDD2450
:1022E000DA940C970CF4ADC04CE050E0BE016F5F87
:1022F0007F4FC8010E94BB0E8B819C819827892744
:1023000098279A8B898BF7014681578129813A81D9
:102310004217530709F0E7C097FFE5C08F7092702E
:102320003BEFC32EDD24DA94892B09F08AC06F803D
:1023300078847624672476242AEFC22EDD24DA946A
:102340006114710409F47DC0D12CC12C8D819E8152
:10235000982789279827C816D906F8F441E050E055
:10236000BE01635F7F4FC8010E94BB0E4D854423B1
:1023700031F050E070E060E0C8010E94BB0E8D8536
:102380008111ECCF44E050E070E060E0C8010E94B1
:10239000BB0EFFEFCF1ADF0AD9CF912C812C41E081
:1023A00050E0BE016D5E7F4FC8010E94BB0E4B899D
:1023B000842F807C09F06CC0442331F050E070E041
:1023C00060E0C8010E94BB0E8B898111E8CF42E01A
:1023D00050E0BE01615F7F4FC8010E94BB0E42E02A
:1023E00050E0BE01635F7F4FC8010E94BB0E44E016
:1023F00050E070E060E0C8010E94BB0E42E050E097
:10240000BE016F5E7F4FC8010E94BB0E8F85988909
:1024100049895A898115914009F043C0CD84DE84F1
:10242000DC24CD24DC2481E0C816D104D1F541158B
:10243000544009F04AC044E050E0B201C8010E9493
:10244000BB0E21E0A21AB10809F46CCEFFEFCF1643
:10245000DF0609F067CE0E940A023B014C01C80169
:102460000E94C20F181619060CF421CF0E940A020E
:1024700066197709880999096938734181059105B9
:1024800048F562E370E080E090E00E94D801E7CF79
:1024900041E050E070E060E0C8010E94BB0E1B8A82
:1024A00093CF54274527542770E060E0C8010E946D
:1024B000BB0EFFEF8F1A9F0A6814790409F06FCFE3
:1024C00096EFC92EDD24DA94BCCFE7EFCE2EDD24C3
:1024D000DA94B7CFCC24CA94DC2CB3CF6EEFC62EDF
:1024E000DD24DA94AECF4CEFC42EDD24DA94A9CFEC
:1024F0008EEFC82EDD24DA9430CED12CC12C2DCE17
:10250000CF92DF92EF92FF920F931F93CF93DF93BF
:10251000CDB7DEB7AF970FB6F894DEBF0FBECDBF15
:102520007C016A010FE811E01A8309831C861B866F
:1025300088EE93E0A0E0B0E08D879E87AF87B88BF0
:102540008CE191E09A878987188F0F8B198E1A8EEC
:102550001B8E1C8E84E089A31BA70AA71CA61DA6A0
:102560001EA61FA680912B0690912C06A0912D06E9
:10257000B0912E068EA39FA3A8A7B9A78B839C8397
:10258000AD83BE8318861F82AE01465D5F4FCE01CC
:1025900001960E94201081309105B1F4D701ED9190
:1025A000FC910488F589E02D1DA30CA38CA59DA5A5
:1025B000AEA5BFA58EA39FA3A8A7B9A7A601BE01DC
:1025C0006C5D7F4FC7010995AF960FB6F894DEBFDB
:1025D0000FBECDBFDF91CF911F910F91FF90EF9074
:1025E000DF90CF900895CF92DF92EF92FF920F93FA
:1025F0001F93CF93DF93CDB7DEB7AF970FB6F894A5
:10260000DEBF0FBECDBF8C016B017A018FE891E078
:102610009A8389831B821C821D821E821C861B86D4
:1026200048EE53E060E070E04D875E876F87788BFF
:102630002CE131E03A872987988F8F8B198E1A8E7B
:102640001B8E1C8E24E029A39BA78AA71CA61DA66F
:102650001EA61FA6D8011C968C91843060F40E949F
:10266000C407882321F0F80184850E949B0784E039
:10267000D8011C968C9380912B0690912C06A091EA
:102680002D06B0912E068EA39FA3A8A7B9A78B8372
:102690009C83AD83BE8318861F82AE01465D5F4F6B
:1026A000B601CE0101960E9420100097C1F0D8011A
:1026B000ED91FC910684F785E02D8FE891E09DA3D4
:1026C0008CA38CA59DA5AEA5BFA58EA39FA3A8A7EF
:1026D000B9A7A701BE016C5D7F4FC8010995AF96F0
:1026E0000FB6F894DEBF0FBECDBFDF91CF911F9123
:1026F0000F91FF90EF90DF90CF9008957F928F928F
:102700009F92AF92BF92CF92DF92EF92FF920F9380
:102710001F93CF93DF93CDB7DEB7A6970FB6F8948C
:10272000DEBF0FBECDBF8C01762E942E852E20E20B
:10273000A22ECE0101967C01DC01EA2D1D92EA95C4
:10274000E9F76801F3E4CF0ED11C8FE891E09AA37A
:1027500089A38FEF8BA38CA38DA38EA343E450E0BA
:10276000BE016F5D7F4FC6010E94E504019609F42A
:10277000BFC081E089838A8386E0B82EBB821C8239
:10278000D80114966D917D918D919C9117970E941F
:10279000F62C6D837E838F83988789869A8680E85E
:1027A00090E09C878B874CE150E0B701C6010E9406
:1027B000880CFE0137968AE1DF011D928A95E9F7C0
:1027C0004801B8E08B0E911CF401D70101900D92E5
:1027D000BA94E1F740E150E0B701C6010E94880CCD
:1027E000F7011192AA94E9F796E0A92EB12C40E2E4
:1027F00050E0B701C6010E94880CF1E0AF1AB108A1
:10280000B1F783E6898392E89A8393E59B838C836F
:1028100085E38D8381E08E837F829DE3988797E0B7
:1028200099878A8786E0F401DE011B9601900D925C
:102830008A95E1F78CE0898B8A8B61EA71E0CE01A1
:1028400043960E94022FD8011B966C91CE014996A7
:102850000E940D01F8016485CE014B960E940D0186
:10286000D8011D966C91CE014D960E940D014EE14E
:1028700050E0B701C6010E94880CB3E07B121EC075
:1028800082E3898384E08A83F80196859B83978518
:102890009C8390899D8391899E8396E39F838887FB
:1028A000828D8987838D8A87848D8B87858D8C87A0
:1028B0004CE050E0B701C6010E94880C87E3898391
:1028C00086E08A8391E09B8393E09C838D838FE0F5
:1028D0008E838AE38F838BE388878FEF898749E034
:1028E00050E0B701C6010E94880CC6010E944D0845
:1028F000A6960FB6F894DEBF0FBECDBFDF91CF9185
:102900001F910F91FF90EF90DF90CF90BF90AF900D
:102910009F908F907F900895FB0101900020E9F730
:102920003197AF01461B570BDC01ED91FC91028002
:10293000F381E02D09948F929F92AF92BF92EF9214
:10294000FF920F931F93CF93DF93CDB7DEB7A1977D
:102950000FB6F894DEBF0FBECDBF7C01FA01CB01EC
:1029600019A2223008F42AE08E010F5D1F4F822E3B
:10297000912CB12CA12CBF01A50194010E94AD2B7B
:10298000F901CA016A300CF5605DD8016E938D01C2
:10299000232B242B252B79F790E080E0109721F052
:1029A000BD01C7010E948C14A1960FB6F894DEBF3A
:1029B0000FBECDBFDF91CF911F910F91FF90EF9090
:1029C000BF90AF909F908F900895695CDECFCF92BB
:1029D000DF92EF92FF920F931F93CF93DF936B01E0
:1029E000770FEE08FF08F7FE1BC0EC016DE20E94B6
:1029F00016028C0144275527BA014C195D096E094E
:102A00007F092AE0CE010E949B14800F911FDF9165
:102A1000CF911F910F91FF90EF90DF90CF9008958D
:102A20002AE0B701A601DF91CF911F910F91FF908E
:102A3000EF90DF90CF900C949B148F929F92AF9267
:102A4000BF92CF92DF92EF92FF920F931F93CF939B
:102A5000DF937C018B016C0182E0C80ED11C470121
:102A6000E5E08E0E911CD0E0C0E0F60141916F01CF
:102A700050E070E060E02AE0C8010E949B145C0115
:102A80006EE2C8010E9416028A0D9B1DC80FD91F55
:102A9000C814D90451F7F701458150E070E060E0B7
:102AA0002AE0C8010E949B148C0F9D1FDF91CF91DB
:102AB0001F910F91FF90EF90DF90CF90BF90AF905C
:102AC0009F908F9008952F923F924F925F926F92B6
:102AD0007F928F929F92AF92BF92CF92DF92EF92AE
:102AE000FF921F93CF93DF93EC016A017B01722E5B
:102AF000AB019601CB01B6010E94F12C68EA71E0AE
:102B0000811126C046015701E894B7F82FEF3FEF37
:102B10004FE75FE7C501B4010E94F12C81110CC0A1
:102B20002FEF3FEF4FE75FE7C501B4010E94202A76
:102B30006CEA71E0181664F02FEF3FEF4FE75FE4A7
:102B4000C701B6010E94EC2C1816B4F460EB71E0DA
:102B5000CE01DF91CF911F91FF90EF90DF90CF904A
:102B6000BF90AF909F908F907F906F905F904F90AD
:102B70003F902F900C948C142FEF3FEF4FE75FECBA
:102B8000C701B6010E94202A87FDE0CF20E030E097
:102B9000A901C701B6010E94202A312C212C87FFF0
:102BA00009C06DE2CE010E9416021C01F7FAF094F2
:102BB000F7F8F09410E060E070E080E09FE37116B9
:102BC00041F020E030E040E251E40E944B2C1F5FD6
:102BD000F6CFA70196010E94DF2B2B013C010E943A
:102BE000BD2C4B015C012AE0BC01A401CE010E9476
:102BF0009B147C01E20CF31C1123C1F1C501B4014B
:102C00000E94252A9B01AC01C301B2010E94DE2B68
:102C10004B015C016EE2CE010E941602E80EF91E25
:102C2000115020F120E030E040E251E4C501B40150
:102C30000E94862A2B013C010E94BD2C4B01B12C25
:102C4000A12C2AE0B501A401CE010E949B14E80E3C
:102C5000F91EC501B4010E94252A9B01AC01C301E4
:102C6000B2010E94DE2B4B015C01DACFC701DF917C
:102C7000CF911F91FF90EF90DF90CF90BF90AF90DA
:102C80009F908F907F906F905F904F903F902F908C
:102C900008950F931F93CF93DF93EC010E948C1440
:102CA0008C016BE872E0CE010E948C14800F911FA2
:102CB000DF91CF911F910F9108950F931F93CF93A1
:102CC000DF93EC0188819981009759F02A813B813B
:102CD0002617370730F081E0DF91CF911F910F91D8
:102CE00008958B016F5F7F4F0E94282E009759F047
:102CF000998388831B830A832C813D81232B59F779
:102D0000FC011082E8CF80E0E7CFCF93DF93EC01A6
:102D100088819981009711F00E949F2D1982188255
:102D20001D821C821B821A82DF91CF910895EF923F
:102D3000FF920F931F93CF93DF93EC017B018A01E6
:102D4000BA010E945D1681110BC0CE010E9485164A
:102D5000CE01DF91CF911F910F91FF90EF900895D9
:102D60001D830C83B701888199810E94022FF0CFC7
:102D7000FB0101900020E9F73197AF01461B570B8B
:102D80000C949716EF92FF920F931F93CF93DF93BC
:102D9000CDB7DEB7A1970FB6F894DEBF0FBECDBF9B
:102DA0007C01CB01BA01F7011182108213821282D9
:102DB000158214828E010F5F1F4F22E044E00E94B3
:102DC000EB26009789F0BC01C7010E94B816A196B6
:102DD0000FB6F894DEBF0FBECDBFDF91CF911F912C
:102DE0000F91FF90EF900895C7010E948516EFCFD5
:102DF000CF93DF93D0E0C0E06DE872E0CE01815563
:102E00009A4F0E94B8162696C033D105A9F780E0E4
:102E100090E0A0ECBFE78093DF059093E005A093DE
:102E2000E105B093E2058093E3059093E405A09358
:102E3000E505B093E6058093E7059093E805A09338
:102E4000E905B093EA056DE872E08DEE95E00E9429
:102E5000B8166DE872E083EF95E00E94B8166DE851
:102E600072E089EF95E00E94B8166DE872E08FEF8E
:102E700095E0DF91CF910C94B8168091AB059091BD
:102E8000AC05DC01ED91FC910084F185E02D099504
:102E9000A091AB05B091AC05ED91FC91119718167E
:102EA000190634F40284F385E02DCD010995E5CFB0
:102EB0000488F589E02DCD0109950E94F81682ED70
:102EC0009EEF0895FC0111821082138212821582F6
:102ED0001482FB0101900020E9F73197AF01461BF6
:102EE000570B0C949716FC0180819181009711F08B
:102EF0000C949F2D08954F925F926F927F92AF92A4
:102F0000BF92CF92DF92EF92FF920F931F93CF93D6
:102F1000DF93CDB7DEB76A970FB6F894DEBF0FBE6A
:102F2000CDBF5C016A017B012A013B01E89477F87F
:102F30002FEF3FEF4FE75FE7C301B2010E94F12C93
:102F400081110AC02FEF3FEF4FE75FE7C301B201E6
:102F50000E94202A1816ACF026E934ED48E653E525
:102F6000C701B6010E94EC2C18160CF451C026E9DA
:102F700034ED48E653EDC701B6010E94202A87FDD3
:102F800047C08E010F5F1F4F25E041E0C701B6012A
:102F90000E94EB26B801CE0145960E946217498D2A
:102FA0005A8D0BE91FEF4F3F510509F0A0F481E066
:102FB000A81AB10826E02A9DC0012B9D900D11246E
:102FC00081559A4F6D897E8961157105F1F00E94D6
:102FD000971608EC10E0CE0145960E947317C801C1
:102FE0006A960FB6F894DEBF0FBECDBFDF91CF91CA
:102FF0001F910F91FF90EF90DF90CF90BF90AF9017
:103000007F906F905F904F9008950E948516E1CF5A
:103010000BE91FEFE4CF8F929F92AF92BF92CF92B6
:10302000DF92EF92FF920F931F93CF93DF93CDB771
:10303000DEB72E970FB6F894DEBF0FBECDBF7C0172
:103040008091AB059091AC054091AD055091AE05D6
:10305000DC01ED91FC910088F189E02D64EB71E0D9
:10306000099503ED1EEF892B09F4A8C0EBEAF5E002
:103070002BED35E010E000E080859185009721F090
:10308000085F1F4F080F191F36962E173F07A1F72D
:103090008090DF059090E005A090E105B090E205FA
:1030A000A5019401C501B4010E94F12C81110FC04A
:1030B000B501A401CE0101960E94C2168D819E81A8
:1030C0000596080F191FCE0101960E947317809074
:1030D000E3059090E405A090E505B090E605A50114
:1030E0009401C501B4010E94F12C81110FC0B501FA
:1030F000A401CE0101960E94C2168D819E81069682
:10310000080F191FCE0101960E9473178090E705E2
:103110009090E805A090E905B090EA05A50194011A
:10312000C501B4010E94F12C81110FC0B501A401A9
:10313000CE0101960E94C2168D819E810B96080FCA
:10314000191FCE0101960E9473178091F10590918D
:10315000F205009719F00896080F191F8091F705DE
:103160009091F805009719F00996080F191F8091A2
:10317000FD059091FE05009719F00796080F191F9D
:103180008091030690910406009719F00C96080FA1
:10319000191F0115110509F468C3035F1F4F09F4D6
:1031A00064C367EC71E08091AB059091AC050E941F
:1031B0008C14892BB9F40E943D178C01C8012E96FE
:1031C0000FB6F894DEBF0FBECDBFDF91CF911F9138
:1031D0000F91FF90EF90DF90CF90BF90AF909F90B6
:1031E0008F9008956FED71E08091AB059091AC05E3
:1031F0000E948C14892BF9F26AEF71E08091AB0583
:103200009091AC050E948C14892BA9F267E072E0C2
:103210008091AB059091AC050E948C14892B59F2DA
:103220006BE872E08091AB059091AC050E948C1424
:10323000892B09F2E114F10401F161E372E080915C
:10324000AB059091AC050E948C14892B09F4B3CF87
:10325000B7018091AB059091AC050E948C14892B2D
:1032600009F4A9CF6BE872E08091AB059091AC05B1
:103270000E948C14892B09F49ECF66E472E0809141
:10328000AB059091AC050E948C14892B09F493CF67
:1032900068E772E08091AB059091AC050E948C14B8
:1032A000892B09F488CFB8018091AB059091AC05CA
:1032B0000E94E714892B09F47ECF69E872E08091BF
:1032C000AB059091AC050E948C14892B09F473CF47
:1032D0008FEAA82E85E0B82EC12CD12C7601C3949C
:1032E00011E0F50184819581892BD1F111110BC079
:1032F0006EE872E08091AB059091AC050E948C1451
:10330000892B09F458CF60E972E08091AB05909168
:10331000AC050E948C14892B09F44DCF2AE0B7012B
:10332000A6018091AB059091AC050E949B14892B5E
:1033300009F441CF6FE972E08091AB059091AC0543
:103340000E948C14892B09F436CFB5018091AB050E
:103350009091AC050E941D02892B09F42CCF10E03E
:10336000F6E0AF0EB11C2FEFC21AD20AE20AF20A3F
:1033700089E0C816D104E104F10409F0B2CF6091EC
:10338000DF057091E0058091E1059091E2059B01D8
:10339000AC010E94F12C81112BC011110BC06EE801
:1033A00072E08091AB059091AC050E948C14892B42
:1033B00009F401CF66E972E08091AB059091AC050C
:1033C0000E948C14892B09F4F6CE4091DF055091B0
:1033D000E0056091E1057091E20522E08091AB0586
:1033E0009091AC050E94631510E0892B09F4E3CE9F
:1033F0006091E3057091E4058091E5059091E60503
:103400009B01AC010E94F12C81112BC011110BC04A
:103410006EE872E08091AB059091AC050E948C142F
:10342000892B09F4C8CE6BE972E08091AB059091CD
:10343000AC050E948C14892B09F4BDCE4091E305A4
:103440005091E4056091E5057091E60522E08091D8
:10345000AB059091AC050E94631510E0892B09F42F
:10346000AACE6091E7057091E8058091E9059091F9
:10347000EA059B01AC010E94F12C81112BC01111B6
:103480000BC06EE872E08091AB059091AC050E9494
:103490008C14892B09F48FCE61EA72E08091AB0520
:1034A0009091AC050E948C14892B09F484CE409134
:1034B000E7055091E8056091E9057091EA0522E081
:1034C0008091AB059091AC050E94631510E0892BAB
:1034D00009F471CE8091F1059091F205892B21F1CB
:1034E00011110BC06EE872E08091AB059091AC05B4
:1034F0000E948C14892B09F45ECE6CEA72E08091F4
:10350000AB059091AC050E948C14892B09F453CE25
:103510006DEE75E08091AB059091AC050E941D02A7
:1035200010E0892B09F447CE8091F7059091F805BA
:10353000892B21F111110BC06EE872E08091AB056F
:103540009091AC050E948C14892B09F434CE64EB65
:1035500072E08091AB059091AC050E948C14892B90
:1035600009F429CE63EF75E08091AB059091AC052D
:103570000E941D0210E0892B09F41DCE8091FD05EB
:103580009091FE05892B21F111110BC06EE872E0BC
:103590008091AB059091AC050E948C14892B09F4A5
:1035A0000ACE6DEB72E08091AB059091AC050E9464
:1035B0008C14892B09F4FFCD69EF75E08091AB0580
:1035C0009091AC050E941D0210E0892B09F4F3CD07
:1035D0008091AB059091AC052091030630910406D3
:1035E000232BF9F0111107C06EE872E00E948C14D1
:1035F000892B09F4E0CD64EC72E08091AB059091E9
:10360000AC050E948C14892B09F4D5CD6FEF75E0C1
:103610008091AB059091AC050E941D02892B09F4A5
:10362000CACD60ED72E08091AB059091AC050E942F
:103630008C14892B09F4BFCD0E94F8166DE872E056
:10364000CE0107960E9462178091AB059091AC0560
:10365000DC01ED91FC910680F781E02D09950E9437
:103660000A026B017C01B8E8CB0EB3E1DB1EE11C62
:10367000F11C8091AB059091AC05DC01ED91FC91C2
:103680000084F185E02D099541975CF562E070E0DA
:1036900080E090E00E94D8010E940A02C616D70678
:1036A000E806F90630F700ED1EEF8091AB0590912A
:1036B000AC05DC01ED91FC910084F185E02D0995CC
:1036C000E090AB05F090AC05D701ED91FC91181698
:1036D00019060CF0A8C00284F385E02DC7010995F6
:1036E000E4CF6FED72E08091AB059091AC050E9444
:1036F0005F1F811103C001ED1EEFD7CF8091AB0595
:103700009091AC050E94EE1E8B01683C710569F634
:1037100068EE72E08091AB059091AC050E945F1F4E
:10372000882349F38091AB059091AC050E94EE1E71
:103730007B0169E872E08091AB059091AC050E9435
:103740005F1F8823C1F20E940A024B015C01B8E8A6
:103750008B0EB3E19B1EA11CB11C8091AB05909117
:10376000AC05DC01ED91FC910084F185E02D09951B
:103770008E159F0574F462E070E080E090E00E9496
:10378000D8010E940A0286169706A806B90628F7ED
:103790008ACF6DE872E0CE0101960E946217B12CCB
:1037A000A12CAE14BF0454F58091AB059091AC05EB
:1037B000DC01ED91FC910284F385E02D09958D8764
:1037C0001E86CD80DE80BFEFCB1ADB0AB601CE01AC
:1037D00001960E945D16882369F029813A818D81C6
:1037E0009E81BE01635F7F4F820F931F0E94022F55
:1037F000DE82CD82EFEFAE1ABE0AD3CF69817A8125
:103800006115710559F04D815E81CE0107960E94C8
:103810009716CE0101960E94731747CFCE010796E7
:103820000E948516F6CFC488D588083C110541F062
:10383000C701F6010995CE0107960E947317BECC09
:103840008F819885812C912C5401009721F00E9442
:10385000AD274B015C01C701F601099589288A282B
:103860008B2849F70FE61EEFE6CF0EE21FEFA6CC3E
:103870000C949F2D3F924F925F926F927F928F9206
:103880009F92AF92BF92CF92DF92EF92FF920F93EF
:103890001F93CF93DF93CDB7DEB7EA970FB6F894B7
:1038A000DEBF0FBECDBF7C012A013B0169010E9432
:1038B0000A024B015C0187010D5B1F4FC8010E948A
:1038C000C20F181619069CF00E940A02681979099D
:1038D0008A099B09461657066806790608F466C1E8
:1038E00062E370E080E090E00E94D801E7CF42E21E
:1038F00050E0BE016F5F7F4FC8010E94BB0E8981FF
:103900008230D1F0312C832DEA960FB6F894DEBFC9
:103910000FBECDBFDF91CF911F910F91FF90EF9020
:10392000DF90CF90BF90AF909F908F907F906F90DF
:103930005F904F903F900895F80184899589833472
:10394000910501F76D817E818F8198850E94F62C0B
:103950004B015C01F60180829182A282B38246E033
:1039600050E0B701685F7F4FCE014D960E94E52E73
:10397000892B41F6F70180819181A281B38188165C
:103980009906AA06BB0608F4BDCF84819581A6815D
:10399000B78188159905AA05BB0508F4B3CF8989B5
:1039A0009A89AB89BC8986879787A08BB18B4EECAF
:1039B00050E070E060E0C8010E94BB0E312CC701EE
:1039C000829698AB8FA7F701B696FAABE9AB08964B
:1039D0009CAB8BAB67019AE1C90ED11CBD96FEABC7
:1039E000EDABC701429698AF8FABFD97FAAFE9AF49
:1039F0004701FEE18F0E911CF801818D928D181602
:103A000019060CF080CFC8010E94DA0E83339105AD
:103A100009F4B2C014F58130910509F464C044F48E
:103A2000892B51F3C8010E94DA0EAC01552775C0ED
:103A30008330910509F462C00697A1F7C8010E947E
:103A4000DA0EB82E44E050E0B401C8010E94BB0E6B
:103A5000EB2DE450FF0BAF0160C08A33910509F4F0
:103A60005FC084F585339105B1F1C697D9F6C801D9
:103A70000E94DA0E5C01B601CE0189960E947B0F8E
:103A80008BA59CA5ADA5BEA5892B8A2B8B2BB1F050
:103A9000EDA9FEA94080518062807380B601CE01FD
:103AA00083960E947B0F8DA19EA1AFA1B8A5A50111
:103AB000481659066A067B0609F0B8CF44E050E084
:103AC000B60118C08B33910509F440C08F3F9105B2
:103AD00009F492CFA7CFC8010E94DA0EC8010E9454
:103AE000DA0E382E89CFC8010E94DA0E44E050E089
:103AF0006FA978ADC8010E94BB0E7ECFC8010E949D
:103B0000DA0EB82E44E050E069AD7AADC8010E94EB
:103B1000BB0E8B2D8450990BAC0170E060E0EACFB6
:103B2000C8010E94DA0E44E050E069A97AA9C801F0
:103B30000E94BB0EF70166A177A180A591A50E9406
:103B4000F62C66A377A380A791A756CFC8010E9441
:103B5000DA0E44E050E06BA97CA9C8010E94BB0EBC
:103B6000F70162A573A584A595A50E94F62C62A70E
:103B700073A784A795A740CFC8010E94DA0E44E03E
:103B800050E06FA578A9C8010E94BB0EF70162A1A1
:103B900073A184A195A10E94F62C62A373A384A3B0
:103BA00095A366A777A780AB91AB26CF33243A9431
:103BB000AACE1F920F920FB60F9211242F933F930C
:103BC0008F939F93AF93BF938091E1049091E20410
:103BD000A091E304B091E4043091E00423E0230FCA
:103BE0002D3758F50196A11DB11D2093E004809357
:103BF000E1049093E204A093E304B093E404809181
:103C0000E5049091E604A091E704B091E8040196E0
:103C1000A11DB11D8093E5049093E604A093E704F1
:103C2000B093E804BF91AF919F918F913F912F91F5
:103C30000F900FBE0F901F90189526E8230F029645
:103C4000A11DB11DD2CF1F920F920FB60F9211245A
:103C50002F933F934F935F936F937F938F939F9394
:103C6000AF93BF93EF93FF938EE095E00E94A9027C
:103C7000FF91EF91BF91AF919F918F917F916F9144
:103C80005F914F913F912F910F900FBE0F901F901A
:103C900018951F920F920FB60F9211242F938F93A6
:103CA0009F93EF93FF93E0911E05F0911F05808194
:103CB000E0912405F091250582FD1BC09081809143
:103CC00027058F5F8F7320912805821741F0E091BF
:103CD0002705F0E0E25FFA4F958F80932705FF916B
:103CE000EF919F918F912F910F900FBE0F901F908A
:103CF00018958081F4CFCF92DF92EF92FF920F93CD
:103D00001F93E82FF92F05C001501109210931092E
:103D100061F1908196239417B9F305C00150110900
:103D20002109310911F1908196239413F7CFC12C09
:103D3000D12CE12CF12C0AC08FEFC81AD80AE80A5E
:103D4000F80A0C151D052E053F0579F080818623A4
:103D5000841791F36C2D7D2D8E2D9F2D1F910F912A
:103D6000FF90EF90DF90CF90089560E070E080E0EA
:103D700090E01F910F91FF90EF90DF90CF9008950A
:103D80000F931F93CF93DF93EC010E940A02688781
:103D900079878A879B87E881F9810484F585E02DFE
:103DA000CE01099597FF15C00E940A020885198562
:103DB0002A853B85601B710B820B930B0C811D8147
:103DC0002E813F81601771078207930720F38FEFE1
:103DD0009FEFDF91CF911F910F910895BF92CF92E6
:103DE000DF92EF92FF920F931F93CF93DF938C019B
:103DF000C8010E94C01EEC0197FD5DC0D801ED9185
:103E0000FC910284F385E02D8D32910521F0C0975D
:103E10000A9708F04AC0C12CD12C7601B12CC130D0
:103E2000D105D9F0CD32D10509F442C0CE01C097F9
:103E30000A9798F4AAE0B0E0A70196010E94632BCC
:103E40006E01DD0FEE08FF08C60ED71EE81EF91E34
:103E5000B0E3CB1AD108E108F108D801ED91FC914B
:103E60000284F385E02DC8010995C8010E94C01E97
:103E7000EC01C0970A9798F2C130D10581F2BB20BE
:103E800041F0F094E094D094C094C11CD11CE11C8A
:103E9000F11CC701B601DF91CF911F910F91FF90E7
:103EA000EF90DF90CF90BF900895C8010995A0CF03
:103EB000BB24B394D2CFC12CD12C7601EACF6F9220
:103EC0007F928F929F92AF92BF92CF92DF92EF92AA
:103ED000FF920F931F93CF93DF93FB01019000207C
:103EE000E9F731977F01E61AF70A09F041C030E09F
:103EF00020E081E0232B09F080E0DF91CF911F913A
:103F00000F91FF90EF90DF90CF90BF90AF909F9078
:103F10008F907F906F900895C1E0D0E00E940A02D8
:103F2000D80118966D937D938D939C931B97D80120
:103F3000ED91FC910284F385E02DC801099597FF6E
:103F40004AC00E940A02F80180849184A284B3844A
:103F5000681979098A099B0984809580A680B780B1
:103F6000681579058A059B0510F32FEF3FEFC1CF48
:103F70006B018C01D0E0C0E0D1CF209779F23F01F6
:103F8000BC2EAD2E2197D3012E913D01022E000CA7
:103F9000330B2817390719F0209791F7BFCF2097D7
:103FA00009F4BACFA601BF016C1B7D0B30E020E005
:103FB000DA018D90AD01DB019D90BD01891005C036
:103FC0002F5F3F4F2C173D0798F3C217D307C1F659
:103FD000CB2DDA2DA3CFF601EC0FFD1F2081022E91
:103FE000000C330B2817390741F62196EC16FD0615
:103FF00009F094CF7CCFCF93DF93109211051092EC
:10400000100588EE93E0A0E0B0E080931205909355
:104010001305A0931405B09315058BE491E09093DC
:104020000F0580930E0585EC90E090931B0580931F
:104030001A0584EC90E090931D0580931C0580EC9C
:1040400090E090931F0580931E0581EC90E0909383
:1040500021058093200582EC90E0909323058093C6
:10406000220586EC90E0909325058093240510921C
:104070002705109228051092290510922A058FE82D
:1040800091E0909306068093050610920706109221
:1040900008061092090610920A061092AC051092BA
:1040A000AB0580E590E09093AE058093AD05D0E040
:1040B000C0E06DE872E0CE0181559A4F0E94621710
:1040C0002696C033D105A9F76DE872E08DEE95E034
:1040D0000E9462176DE872E083EF95E00E9462171C
:1040E0006DE872E089EF95E00E9462176DE872E07A
:1040F0008FEF95E00E9462170E94F81688EC90E01E
:104100009093EC058093EB058FE891E090930C067B
:1041100080930B0610920D0610920E0610920F0659
:1041200010921006909312068093110610921306B7
:104130001092140610921506109216069093180607
:10414000809317061092190610921A0610921B06F9
:1041500010921C0690931E0680931D0610921F0657
:1041600010922006109221061092220690932406A7
:104170008093230610922506109226061092270699
:10418000109228069093300680932F0610923106E5
:1041900010923206109233061092340690932A063B
:1041A0008093290610922B0610922C0610922D0651
:1041B00010922E069093360680933506109237069D
:1041C000109238061092390610923A0690933C06E7
:1041D00080933B0610923D0610923E0610923F06D9
:1041E0001092400690935D0680935C0610925E06E6
:1041F00010925F0610926006109261069093570627
:104200008093560680EC8093580688EA809359067E
:104210008DE180935A0687EB80935B0610925306DC
:104220001092520685E991E09093510680935006D2
:1042300080E590E0909355068093540610924406D2
:104240001092430688EE93E0A0E0B0E0809345062C
:1042500090934606A0934706B09348068DE591E0FB
:10426000909342068093410684E080934D0688EE49
:1042700093E090934F0680934E06DF91CF9108957F
:10428000CF93DF93CDB7DEB72F970FB6F894DEBF8D
:104290000FBECDBF789484B5826084BD84B5816043
:1042A00084BD85B5826085BD85B5816085BD809101
:1042B0006E00816080936E00109281008091810079
:1042C0008260809381008091810081608093810071
:1042D000809180008160809380008091B100846033
:1042E0008093B1008091B00081608093B000809194
:1042F0007A00846080937A0080917A008260809353
:104300007A0080917A00816080937A0080917A00AF
:10431000806880937A001092C10061E082E00E9480
:10432000700160E083E00E947001E0911E05F09151
:104330001F0582E08083E0911A05F0911B05108231
:10434000E0911C05F0911D058FEC808310922605ED
:10435000E0912205F091230586E08083E09120051D
:10436000F0912105808180618083E0912005F091AA
:104370002105808188608083E0912005F0912105EE
:10438000808180688083E0912005F0912105808103
:104390008F7D808368EF72E08EE095E00E94491681
:1043A0008091BB0481112AC01092A3041092A20430
:1043B00088EE93E0A0E0B0E08093A4049093A5047D
:1043C000A093A604B093A7048CE191E09093A1047C
:1043D0008093A0048FE891E09093AF048093AE04A3
:1043E0001092B0041092B1041092B2041092B3046F
:1043F00084E08093B80481E08093BB048DE594E071
:1044000090935C0480935B048091C304882309F437
:104410005BC180E591E00E940A0146E050E060E067
:1044200071E089E090E00E946E038FE891E09A834A
:1044300089831B821C821D821E8244E050E0BE01E3
:104440006D5F7F4F8FE090E00E946E0310927F04BB
:1044500010928004109281041092820410928304BE
:10446000109284041092850410928604109287049E
:10447000109288041092890410928A0480E69AEEC1
:10448000A0E0B0E08093930490939404A0939504EB
:10449000B093960480EA9FE0A0E0B0E08093970498
:1044A00090939804A0939904B0939A04EBE6F4E0F7
:1044B00084E1DF011D928A95E9F786E0E0E0F1E012
:1044C000A5E6B4E001900D928A95E1F710929F0461
:1044D0000E9455272FEC37E040E050E00E94442B2B
:1044E000DC01CB010196A11DB11D80936104909365
:1044F0006204A0936304B093640480935D0490937A
:104500005E04A0935F04B093600480EA94E00E948C
:10451000B30764E470E080EA94E00E94D40A882340
:1045200009F4D6C00E940A026B017C01A8EE4A2E53
:10453000A3E05A2E612C712CB3E09B2E02E0B12C2B
:10454000A12C80919F04833009F440C08111DEC00A
:104550008091610490916204A0916304B09164041D
:104560000196A11DB11D8093610490936204A093F4
:104570006304B09364040E940A026C197D098E09D9
:104580009F09A30192010E94AD2BA90161E08DE575
:1045900094E00E947E1381E080939F0491E0A9162D
:1045A000B10479F20E940A026C197D098E099F09F3
:1045B0002091930430919404409195045091960475
:1045C000261737074807590708F0B9CF80EA94E063
:1045D0000E94B3078091610490916204A0916304EA
:1045E000B09164040196A11DB11D80936104909364
:1045F0006204A0936304B09364040E940A0260936F
:104600009B0470939C0480939D0490939E04AA94B1
:10461000AB2809F05DC080E591E00E940A0100919D
:104620005B0410915C04B801625F7F4FCE0101967C
:104630000E947B0F44E050E0BE016D5F7F4F8FE032
:1046400090E00E946E03B8016A5E7F4FCE01019632
:104650000E947B0F44E050E0BE016D5F7F4F81E020
:1046600090E00E946E03B8016E5E7F4FCE0101960E
:104670000E947B0F44E050E0BE016D5F7F4F85E0FC
:1046800090E00E946E03B801625E7F4FCE010196FA
:104690000E947B0F8B819C81AD81BE8180932B0614
:1046A00090932C06A0932D06B0932E060E94B30182
:1046B0007F73809106019091070168277927709395
:1046C00007016093060104C00E9460068111A1CE1B
:1046D00068EE73E080E090E00E94D801E0910D0563
:1046E000E353E53030F4F0E0EE5BFE4F8081811162
:1046F0000FC163E273E08EE095E00E94491661E02D
:1047000070E080E090E00E94D801F9CF843031F56C
:104710008091610490916204A0916304B09164045B
:104720000196A11DB11D8093610490936204A09332
:104730006304B09364040E940A026C197D098E0917
:104740009F09A30192010E94AD2BA90163E08DE5B1
:1047500094E00E947E1300939F0420CF813091F556
:1047600040919704509198046091990470919A0433
:104770009E012F5F3F4F8DE594E00E943A1C182F59
:10478000823009F0C1C089819A81AB81BC8180935C
:10479000610490936204A0936304B09364040E9444
:1047A0000A026C197D098E099F09A30192010E94DA
:1047B000AD2BA90163E08DE594E00E947E13109378
:1047C0009F04ECCE823009F0E9CE409197045091DD
:1047D00098046091990470919A049E012F5F3F4F55
:1047E0008DE594E00E943A1C182F853009F087C0AF
:1047F00090929F0480917F0490918004A091810405
:10480000B0918204892B8A2B8B2B61F484E893E08E
:10481000A0E0B0E080937F0490938004A093810493
:10482000B09382048091830490918404A0918504C4
:10483000B0918604892B8A2B8B2BA1F480917F0465
:1048400090918004A0918104B0918204B695A795BF
:10485000979587958093830490938404A09385040F
:10486000B09386048091870490918804A091890474
:10487000B0918A04892B8A2B8B2BE9F480917F04D9
:1048800090918004A0918104B0918204AC01BD019B
:10489000E3E07695679557954795EA95D1F7841BA0
:1048A000950BA60BB70B8093870490938804A09375
:1048B0008904B0938A048091830490918404A09128
:1048C0008504B091860480938B0490938C04A0930C
:1048D0008D04B0938E048091870490918804A091F8
:1048E0008904B0918A0480938F0490939004A093DC
:1048F0009104B0939204AA24A394B12C4FCE863095
:1049000019F410929F044ACE1F3F09F047CEF9CF09
:104910008091C304882309F419C280910D05843362
:1049200009F419C2873309F427C280E596E00E9492
:10493000F90A6AE873E08EE095E00E948C148FE833
:1049400091E09A8389831B821C821D821E8280E5EE
:1049500091E00E940A0144E050E0BE016D5F7F4F8C
:104960008FE090E00E945B056EE075E0CE0101965D
:104970000E941D156BE872E08EE095E00E948C1499
:1049800081E496E09093AC058093AB0580E590E0E0
:104990009093AE058093AD050E94F81688EC90E0E8
:1049A0009093EC058093EB0533E2232E312C8EE0BF
:1049B0000E94A101BC01990F880B990B0E94272A24
:1049C00020E030E040EA50E40E94862A20E030E017
:1049D00040E85AE30E94862A6093DC047093DD0469
:1049E0008093DE049093DF0460E082E00E94240163
:1049F00083E090E00197F1F761E082E00E942401FA
:104A0000C1010197F1F760E082E00E942401E7E92B
:104A1000F1E06491E3E8F1E08491E82FF0E0EE0F3B
:104A2000FF1FEE59FE4F8591949100E412E42FE0B0
:104A300030E0462F0E947B1E6115710581059105AE
:104A400029F06F5F7F4F8F4F9F4F9F7090E080E006
:104A50000E94252A22E03BE247E05DE30E94862A8D
:104A600020E030E040E05FE30E94862A4B015C01D9
:104A70008092D8049092D904A092DA04B092DB0418
:104A800081E10E94A101BC01990F880B990B0E9442
:104A9000272A20E030E44CE955E40E94862A20E0F1
:104AA00030E040E85AE30E94862A20E030E040E20D
:104AB00051E40E944B2C2B013C014092D4045092B3
:104AC000D5046092D6047092D704C090DC04D090D4
:104AD000DD04E090DE04F090DF04C092C404D092C4
:104AE000C504E092C604F092C7048092C804909274
:104AF000C904A092CA04B092CB0480E10E94A10133
:104B0000BC01990F880B990B0E94272A6093CC0453
:104B10007093CD048093CE049093CF044092D00440
:104B20005092D1046092D2047092D304B701A601CE
:104B300081E090E00E947B174091D8045091D90405
:104B40006091DA047091DB0482E090E00E947B17B0
:104B50004091CC045091CD046091CE047091CF046B
:104B600083E090E00E947B174091D4045091D504DB
:104B70006091D6047091D70484E090E00E947B1786
:104B800088E993E00E940B1860E576E0CE0101967B
:104B90000E94140D8D85843008F0CBC069EA73E063
:104BA0008EE095E00E94491611E0CE0101960E9428
:104BB000F207882309F4ADC0CE0101960E94E40DEE
:104BC000892B99F3CE0101960E94040F082F682FBC
:104BD0008EE095E00E94CB020A3009F0D8C0112384
:104BE00019F364EB73E0CE0101960E94491664EC60
:104BF00073E0CE0101960E9449166CED73E0CE0180
:104C000001960E9449166EEE73E0CE0101960E9455
:104C100049166BE872E0CE0101960E948C1469EF90
:104C200073E0CE0101960E94491669E074E0CE015E
:104C300001960E94491684EC882E84E0982EC12C9F
:104C4000D12C7601C39401E010E0D4014D905D9029
:104C50006D907D904D0160E174E08EE095E00E94E2
:104C60008C142AE0B701A6018EE095E00E949B1407
:104C70006BE872E08EE095E00E948C1422E0B301B4
:104C8000A2018EE095E00E9463156BE872E08EE071
:104C900095E00E948C14B301A201C8010E947B1709
:104CA00088E993E00E940B1860E27EE480E090E0E7
:104CB0000E94D8016FE174E0CE0101960E948C142D
:104CC000B801CE0101960E94E7146DE274E0CE01B6
:104CD00001960E948C1422E0B301A201CE0101963C
:104CE0000E94631562E374E0CE0101960E944916AA
:104CF0000F5F1F4FBFEFCB1ADB0AEB0AFB0A053031
:104D0000110509F0A2CF69E374E0CE0101960E947B
:104D1000491661E070E080E090E00E94D801CE0189
:104D200001960E94140861E474E08EE095E00E9410
:104D30004916E0E0F0E0EF2B09F439CE0E9495022D
:104D4000882309F434CE0E94000031CE0E94600610
:104D50008111E3CDEACD80E591E00E940A0185E36F
:104D600090E00E94350685FDE0CD69E673E08EE0B7
:104D700095E00E944916D9CD80E591E00E940A0194
:104D80008EE290E00E94350680FDCFCDEECF0D3053
:104D900009F40BCF10E009CFCF93DF938FEF95E0AD
:104DA0000E94731789EF95E00E94731783EF95E0D7
:104DB0000E9473178DEE95E00E947317CFEDD5E03A
:104DC0002697CE010E94731785E0CF3AD807C1F726
:104DD000DF91CF910895EF920F931F93CF93DF93BD
:104DE000E80134E047FD34E1042E000C550B57FF79
:104DF00003C0519541955109E32E022F242FAE0196
:104E00000E94E927CE01DF91CF911F910F91EF9082
:104E100008958F929F92AF92BF92CF92DF92EF92BE
:104E2000FF92CF93DF93EC01688179818A819B8126
:104E3000611571058105910521F464E279ED8BE539
:104E400097E02DE133EF41E050E00E94442B49010F
:104E50005A019B01AC01A7EAB1E40E94632B6B01EC
:104E60007C01ACEEB4EFA50194010E94712BC60E3B
:104E7000D71EE81EF91EF7FE06C081E0C81AD10849
:104E8000E10880E8F80AC882D982EA82FB82C70179
:104E9000B6019F77DF91CF91FF90EF90DF90CF9099
:104EA000BF90AF909F908F9008958F929F92AF92F6
:104EB000BF92CF92DF92EF92FF92609108017091C2
:104EC000090180910A0190910B016115710581051D
:104ED000910521F464E279ED8BE597E02DE133EF64
:104EE00041E050E00E94442B49015A019B01AC0172
:104EF000A7EAB1E40E94632B6B017C01ACEEB4EF36
:104F0000A50194010E94712BC60ED71EE81EF91E42
:104F1000F7FE06C081E0C81AD108E10880E8F80A67
:104F2000C0920801D0920901E0920A01F0920B01AF
:104F3000C701B6019F77FF90EF90DF90CF90BF90B1
:104F4000AF909F908F90089560930801709309012E
:104F500080930A0190930B0108951F93FC019927F8
:104F60008827BC01E89411911032E9F3193010F050
:104F70001E30C8F31B3251F01D3249F4689406C04C
:104F80000E94D427610F711D811D911D1191105335
:104F90001A30B0F33EF490958095709561957F4FEF
:104FA0008F4F9F4F1F910895592F482F372F262F2E
:104FB000660F771F881F991F660F771F881F991F1D
:104FC000620F731F841F951F660F771F881F991F1D
:104FD0000895A9E0B0E0EFEEF7E20C947C2B6A01B3
:104FE000F22EB02E102FFBE3AF2EA01608F41BE319
:104FF0001F5F012F27E0AE014F5F5F4F0E944829DE
:10500000BC018981982F9970913009F43FC09BE2CF
:10501000E1FC04C09E2D9170E0FC3AC05E2D507101
:10502000E82FE87083FF46C084E0911101C083E05F
:10503000EF2DE81B8F1508F0E0E0D6018E2F20E25F
:10504000552351F1992329F0D6019C93C60101966D
:105050006C0196012D5F3F4FE2FE24C08EE4D60125
:105060008C9391E411969C93119712968C93D9018D
:105070008E2F90E281111BC0E20FF32FF11D1082E1
:105080008EEF9FEF2996ECE00C94982B9DE2C6CF13
:1050900090E2C4CF2D9381508111FCCFCE0ED11C54
:1050A000E0E0D0CF8EE6D6018C9391E6DBCF9D93E6
:1050B0008150E0CF482F447082FF3DC084E09111C1
:1050C00001C083E08F1510F4EF2DE81BD6018E2F61
:1050D00020E2552309F1992329F0D6019C93C601BA
:1050E00001966C0196012D5F3F4FE2FE1BC089E4E3
:1050F000D6018C938EE411968C93119786E41296C8
:105100008C93D9018E2F90E2882309F4B5CF9D931B
:105110008150FACF2D9381508111FCCFCE0ED11C3E
:10512000E0E0D9CF89E6D6018C938EE611968C9378
:10513000119786E6E4CF9B0177FF02C030E020E0C4
:10514000A1E0B0E0911102C0B0E0A0E0F901319619
:10515000AE0FBF1F8B2C912CBB2009F461C05401F2
:10516000EFEFAE1ABE0AAA0DBB1DFA161B0619F008
:1051700014F04F2D4A1B511188C0E3FC59C0760131
:10518000A42FB0E2A1114FC0C40ED11C992309F481
:105190005BC040E0D6011196F60190836D01552366
:1051A00009F448C0012F060F9A81582F507184FFCF
:1051B00003C0913309F4015010160CF047C00930B8
:1051C00008F008E0EEE2FE2E5B01A01AB1088501AE
:1051D0009194819491082F3F320729F4D601FC92D3
:1051E000F60131966F016217730794F102171307E6
:1051F0007CF5DB01A21BB30BAA24A394B12CAC0E4B
:10520000BD1EAA0DBB1D11968C9121503109D601EE
:10521000119628153905F4F0F60180836D01DBCF76
:10522000B12CA12CA0CFF701B1937F01A150AACF3F
:105230009111B0CFD601942F50E302C05D939150ED
:105240009111FCCFC40ED11C40E0ACCF01E0BACF2D
:1052500080E3DBCF6217730731F4963388F495331C
:1052600011F4552369F0F6018083FD01842F90E24B
:10527000811108C0A40FB11D1C9290E080E002CF04
:1052800081E3F1CF91938150F3CF911183CF8ACFF6
:10529000283008F027E03327DA01990F311D87FD08
:1052A000916000966105710539F432602E5F3D937F
:1052B00030E32A95E1F708959F3F30F0803871057B
:1052C000610509F03C5F3C5F3D93913008F08068D8
:1052D000911DDF93CF931F930F93FF92EF92192F9E
:1052E000987F9695E92F96959695E90FFF27EE53AF
:1052F000FF4F99273327EE24FF24A701E7010590EC
:105300000894079428F4360FE71EF81E491F511D14
:10531000660F771F881F991F0694A1F705900794C1
:1053200028F4E70EF81E491F561FC11D770F881F6E
:10533000991F661F0694A1F70590079428F4F80EAC
:10534000491F561FC71FD11D880F991F661F771F42
:105350000694A1F70590079420F4490F561FC71F24
:10536000D81F990F661F771F881F0694A9F784918D
:105370001095177041F0D695C79557954795F794B6
:10538000E7941A95C1F7E8E6F0E068941590159156
:1053900035916591959105907FE27395E118F10A39
:1053A000430B560BC90BD009C0F7E10CF11E431F8C
:1053B000561FC91FD01D7EF4703311F48A95E6CFB5
:1053C000E894015030F0080F0AF40027021708F49F
:1053D000202F2395022F7A3328F079E37D932A95A5
:1053E000E9F710C07D932A9589F6069497956795FD
:1053F000379517951794E118F10A430B560BC90B13
:10540000D00998F023957E9173957A3308F070E374
:105410007C932013B8F77E9170617D9330F0839573
:1054200071E37D9370E32A95E1F71124EF90FF90EB
:105430000F911F91CF91DF91992787FD9095089546
:105440000E94622A08F481E00895E89409C097FB5D
:105450003EF490958095709561957F4F8F4F9F4F4B
:105460009923A9F0F92F96E9BB279395F69587958F
:1054700077956795B795F111F8CFFAF4BB0F11F452
:1054800060FF1BC06F5F7F4F8F4F9F4F16C08823F9
:1054900011F096E911C0772321F09EE8872F762F2F
:1054A00005C0662371F096E8862F70E060E02AF070
:1054B0009A95660F771F881FDAF7880F969587955C
:1054C00097F90895990F0008550FAA0BE0E8FEEF31
:1054D00016161706E807F907C0F012161306E407B8
:1054E000F50798F0621B730B840B950B39F40A26B1
:1054F00061F0232B242B252B21F408950A2609F48F
:10550000A140A6958FEF811D811D08950E94992AC3
:105510000C940A2B0E94FC2A38F00E94032B20F0E6
:10552000952311F00C94F32A0C94F92A11240C946D
:105530003E2B0E941B2B70F3959FC1F3950F50E0FB
:10554000551F629FF001729FBB27F00DB11D639F35
:10555000AA27F00DB11DAA1F649F6627B00DA11DDB
:10556000661F829F2227B00DA11D621F739FB00D81
:10557000A11D621F839FA00D611D221F749F3327F1
:10558000A00D611D231F849F600D211D822F762F8A
:105590006A2F11249F5750409AF0F1F088234AF067
:1055A000EE0FFF1FBB1F661F771F881F91505040D3
:1055B000A9F79E3F510580F00C94F32A0C943E2BE2
:1055C0005F3FE4F3983ED4F3869577956795B7955A
:1055D000F795E7959F5FC1F7FE2B880F911D969574
:1055E000879597F9089597F99F6780E870E060E0E4
:1055F00008959FEF80EC089500240A94161617066C
:1056000018060906089500240A94121613061406B3
:1056100005060895092E0394000C11F4882352F016
:10562000BB0F40F4BF2B11F460FF04C06F5F7F4FCE
:105630008F4F9F4F089557FD9058440F551F59F0B5
:105640005F3F71F04795880F97FB991F61F09F3F6F
:1056500079F087950895121613061406551FF2CF98
:105660004695F1DF08C0161617061806991FF1CFE8
:1056700086957105610508940895E894BB2766270F
:105680007727CB0197F90895052E97FB1EF4009418
:105690000E945B2B57FD07D00E94AD2B07FC03D067
:1056A0004EF40C945B2B50954095309521953F4FCF
:1056B0004F4F5F4F089590958095709561957F4FFE
:1056C0008F4F9F4F08950E94CF2BA59F900DB49FA1
:1056D000900DA49F800D911D11240895B7FF0C9487
:1056E000632B0E94632B821B930B08952F923F9292
:1056F0004F925F926F927F928F929F92AF92BF92E2
:10570000CF92DF92EF92FF920F931F93CF93DF938D
:10571000CDB7DEB7CA1BDB0B0FB6F894DEBF0FBEEA
:10572000CDBF09942A88398848885F846E847D8437
:105730008C849B84AA84B984C884DF80EE80FD8039
:105740000C811B81AA81B981CE0FD11D0FB6F894AF
:10575000DEBF0FBECDBFED010895A1E21A2EAA1B38
:10576000BB1BFD010DC0AA1FBB1FEE1FFF1FA21711
:10577000B307E407F50720F0A21BB30BE40BF50B0E
:10578000661F771F881F991F1A9469F76095709597
:10579000809590959B01AC01BD01CF010895A29F1A
:1057A000B001B39FC001A39F700D811D1124911DF5
:1057B000B29F700D811D1124911D08955058BB2773
:1057C000AA270E94F62B0C940A2B0E94FC2A38F080
:1057D0000E94032B20F039F49F3F19F426F40C9417
:1057E000F92A0EF4E095E7FB0C94F32AE92F0E94C6
:1057F0001B2B58F3BA17620773078407950720F02D
:1058000079F4A6F50C943D2B0EF4E0950B2EBA2FEF
:10581000A02D0B01B90190010C01CA01A0011124B6
:10582000FF27591B99F0593F50F4503E68F11A1662
:10583000F040A22F232F342F4427585FF3CF4695F3
:1058400037952795A795F0405395C9F77EF41F1615
:10585000BA0B620B730B840BBAF09150A1F0FF0FDF
:10586000BB1F661F771F881FC2F70EC0BA0F621FCB
:10587000731F841F48F4879577956795B795F795BB
:105880009E3F08F0B0CF9395880F08F09927EE0F50
:105890009795879508950E945F2C0C940A2B0E947F
:1058A000032B58F00E94FC2A40F029F45F3F29F0B6
:1058B0000C94F32A51110C943E2B0C94F92A0E945B
:1058C0001B2B68F39923B1F3552391F3951B550BCB
:1058D000BB27AA2762177307840738F09F5F5F4FC3
:1058E000220F331F441FAA1FA9F335D00E2E3AF002
:1058F000E0E832D091505040E695001CCAF72BD01A
:10590000FE2F29D0660F771F881FBB1F261737076A
:105910004807AB07B0E809F0BB0B802DBF01FF279C
:1059200093585F4F3AF09E3F510578F00C94F32A5C
:105930000C943E2B5F3FE4F3983ED4F38695779525
:105940006795B795F7959F5FC9F7880F911D969555
:10595000879597F90895E1E0660F771F881FBB1FB1
:10596000621773078407BA0720F0621B730B840B5E
:10597000BA0BEE1F88F7E09508950E94232B88F05C
:105980009F5798F0B92F9927B751B0F0E1F0660F03
:10599000771F881F991F1AF0BA95C9F714C0B13044
:1059A00091F00E943D2BB1E008950C943D2B672FA0
:1059B000782F8827B85F39F0B93FCCF38695779573
:1059C0006795B395D9F73EF490958095709561955C
:1059D0007F4F8F4F9F4F08950E94622A08F48FEFE8
:1059E00008950E94622A880B990B089569279627CB
:1059F00069277827872778270895EE0FFF1F0590DE
:105A0000F491E02D09940F931F93CF93DF9382308D
:105A1000910510F482E090E0E0916406F091650653
:105A200030E020E0B0E0A0E0309799F42115310596
:105A300009F44AC0281B390B24303105D8F58A8176
:105A40009B816115710589F1FB0193838283FE01BE
:105A500011C0408151810281138148175907E0F03C
:105A60004817590799F4109761F012960C93129702
:105A700013961C933296CF01DF91CF911F910F9116
:105A800008950093640610936506F4CF211531053F
:105A900051F04217530738F0A901DB019A01BD010B
:105AA000DF01F801C1CFEF01F9CF90936506809334
:105AB0006406CDCFFE01E20FF31F81939193225034
:105AC000310939832883D7CF20916206309163064C
:105AD000232B41F420910E0130910F013093630686
